{
  "address": "0xdD94a710009CD1d859fd48D5eb29A1a49dD6135f",
  "abi": [
    {
      "inputs": [
        {
          "internalType": "string",
          "name": "name",
          "type": "string"
        },
        {
          "internalType": "string",
          "name": "symbol",
          "type": "string"
        }
      ],
      "stateMutability": "nonpayable",
      "type": "constructor"
    },
    {
      "anonymous": false,
      "inputs": [
        {
          "indexed": true,
          "internalType": "address",
          "name": "owner",
          "type": "address"
        },
        {
          "indexed": true,
          "internalType": "address",
          "name": "spender",
          "type": "address"
        },
        {
          "indexed": false,
          "internalType": "uint256",
          "name": "value",
          "type": "uint256"
        }
      ],
      "name": "Approval",
      "type": "event"
    },
    {
      "anonymous": false,
      "inputs": [
        {
          "indexed": true,
          "internalType": "address",
          "name": "from",
          "type": "address"
        },
        {
          "indexed": true,
          "internalType": "address",
          "name": "to",
          "type": "address"
        },
        {
          "indexed": false,
          "internalType": "uint256",
          "name": "value",
          "type": "uint256"
        }
      ],
      "name": "Transfer",
      "type": "event"
    },
    {
      "inputs": [
        {
          "internalType": "address",
          "name": "owner",
          "type": "address"
        },
        {
          "internalType": "address",
          "name": "spender",
          "type": "address"
        }
      ],
      "name": "allowance",
      "outputs": [
        {
          "internalType": "uint256",
          "name": "",
          "type": "uint256"
        }
      ],
      "stateMutability": "view",
      "type": "function"
    },
    {
      "inputs": [
        {
          "internalType": "address",
          "name": "spender",
          "type": "address"
        },
        {
          "internalType": "uint256",
          "name": "amount",
          "type": "uint256"
        }
      ],
      "name": "approve",
      "outputs": [
        {
          "internalType": "bool",
          "name": "",
          "type": "bool"
        }
      ],
      "stateMutability": "nonpayable",
      "type": "function"
    },
    {
      "inputs": [
        {
          "internalType": "address",
          "name": "account",
          "type": "address"
        }
      ],
      "name": "balanceOf",
      "outputs": [
        {
          "internalType": "uint256",
          "name": "",
          "type": "uint256"
        }
      ],
      "stateMutability": "view",
      "type": "function"
    },
    {
      "inputs": [],
      "name": "decimals",
      "outputs": [
        {
          "internalType": "uint8",
          "name": "",
          "type": "uint8"
        }
      ],
      "stateMutability": "view",
      "type": "function"
    },
    {
      "inputs": [
        {
          "internalType": "address",
          "name": "spender",
          "type": "address"
        },
        {
          "internalType": "uint256",
          "name": "subtractedValue",
          "type": "uint256"
        }
      ],
      "name": "decreaseAllowance",
      "outputs": [
        {
          "internalType": "bool",
          "name": "",
          "type": "bool"
        }
      ],
      "stateMutability": "nonpayable",
      "type": "function"
    },
    {
      "inputs": [],
      "name": "deposit",
      "outputs": [],
      "stateMutability": "payable",
      "type": "function"
    },
    {
      "inputs": [
        {
          "internalType": "address",
          "name": "to",
          "type": "address"
        },
        {
          "internalType": "uint256",
          "name": "amount",
          "type": "uint256"
        }
      ],
      "name": "getFreeTokens",
      "outputs": [],
      "stateMutability": "nonpayable",
      "type": "function"
    },
    {
      "inputs": [
        {
          "internalType": "address",
          "name": "spender",
          "type": "address"
        },
        {
          "internalType": "uint256",
          "name": "addedValue",
          "type": "uint256"
        }
      ],
      "name": "increaseAllowance",
      "outputs": [
        {
          "internalType": "bool",
          "name": "",
          "type": "bool"
        }
      ],
      "stateMutability": "nonpayable",
      "type": "function"
    },
    {
      "inputs": [],
      "name": "name",
      "outputs": [
        {
          "internalType": "string",
          "name": "",
          "type": "string"
        }
      ],
      "stateMutability": "view",
      "type": "function"
    },
    {
      "inputs": [],
      "name": "symbol",
      "outputs": [
        {
          "internalType": "string",
          "name": "",
          "type": "string"
        }
      ],
      "stateMutability": "view",
      "type": "function"
    },
    {
      "inputs": [],
      "name": "totalSupply",
      "outputs": [
        {
          "internalType": "uint256",
          "name": "",
          "type": "uint256"
        }
      ],
      "stateMutability": "view",
      "type": "function"
    },
    {
      "inputs": [
        {
          "internalType": "address",
          "name": "recipient",
          "type": "address"
        },
        {
          "internalType": "uint256",
          "name": "amount",
          "type": "uint256"
        }
      ],
      "name": "transfer",
      "outputs": [
        {
          "internalType": "bool",
          "name": "",
          "type": "bool"
        }
      ],
      "stateMutability": "nonpayable",
      "type": "function"
    },
    {
      "inputs": [
        {
          "internalType": "address",
          "name": "sender",
          "type": "address"
        },
        {
          "internalType": "address",
          "name": "recipient",
          "type": "address"
        },
        {
          "internalType": "uint256",
          "name": "amount",
          "type": "uint256"
        }
      ],
      "name": "transferFrom",
      "outputs": [
        {
          "internalType": "bool",
          "name": "",
          "type": "bool"
        }
      ],
      "stateMutability": "nonpayable",
      "type": "function"
    },
    {
      "inputs": [
        {
          "internalType": "uint256",
          "name": "amount",
          "type": "uint256"
        }
      ],
      "name": "withdraw",
      "outputs": [],
      "stateMutability": "nonpayable",
      "type": "function"
    }
  ],
  "transactionHash": "0xb37101a72ea78115ae05999cb2641e1a5776a6826916f6abe663fc8f53d556f6",
  "args": [
    "Wrapped Ether Test",
    "WETH"
  ],
  "solcInputHash": "0xe78f50a04fe39390d280aa77bd086e6cee06a9cb7ba71a76022660b45a90650e",
  "bytecode": "0x60806040523480156200001157600080fd5b506040516200108338038062001083833981810160405260408110156200003757600080fd5b81019080805160405193929190846401000000008211156200005857600080fd5b9083019060208201858111156200006e57600080fd5b82516401000000008111828201881017156200008957600080fd5b82525081516020918201929091019080838360005b83811015620000b85781810151838201526020016200009e565b50505050905090810190601f168015620000e65780820380516001836020036101000a031916815260200191505b50604052602001805160405193929190846401000000008211156200010a57600080fd5b9083019060208201858111156200012057600080fd5b82516401000000008111828201881017156200013b57600080fd5b82525081516020918201929091019080838360005b838110156200016a57818101518382015260200162000150565b50505050905090810190601f168015620001985780820380516001836020036101000a031916815260200191505b50604052505082518391508290620001b8906003906020850190620001e7565b508051620001ce906004906020840190620001e7565b50506005805460ff191660121790555062000283915050565b828054600181600116156101000203166002900490600052602060002090601f016020900481019282601f106200022a57805160ff19168380011785556200025a565b828001600101855582156200025a579182015b828111156200025a5782518255916020019190600101906200023d565b50620002689291506200026c565b5090565b5b808211156200026857600081556001016200026d565b610df080620002936000396000f3fe6080604052600436106100dd5760003560e01c806370a082311161007f578063a9059cbb11610059578063a9059cbb14610334578063ccddff471461036d578063d0e30db0146103a6578063dd62ed3e146103ae576100dd565b806370a08231146102b357806395d89b41146102e6578063a457c2d7146102fb576100dd565b806323b872dd116100bb57806323b872dd146101e05780632e1a7d4d14610223578063313ce5671461024f578063395093511461027a576100dd565b806306fdde03146100e2578063095ea7b31461016c57806318160ddd146101b9575b600080fd5b3480156100ee57600080fd5b506100f76103e9565b6040805160208082528351818301528351919283929083019185019080838360005b83811015610131578181015183820152602001610119565b50505050905090810190601f16801561015e5780820380516001836020036101000a031916815260200191505b509250505060405180910390f35b34801561017857600080fd5b506101a56004803603604081101561018f57600080fd5b506001600160a01b03813516906020013561047f565b604080519115158252519081900360200190f35b3480156101c557600080fd5b506101ce61049c565b60408051918252519081900360200190f35b3480156101ec57600080fd5b506101a56004803603606081101561020357600080fd5b506001600160a01b038135811691602081013590911690604001356104a2565b34801561022f57600080fd5b5061024d6004803603602081101561024657600080fd5b5035610529565b005b34801561025b57600080fd5b5061026461056c565b6040805160ff9092168252519081900360200190f35b34801561028657600080fd5b506101a56004803603604081101561029d57600080fd5b506001600160a01b038135169060200135610575565b3480156102bf57600080fd5b506101ce600480360360208110156102d657600080fd5b50356001600160a01b03166105c3565b3480156102f257600080fd5b506100f76105de565b34801561030757600080fd5b506101a56004803603604081101561031e57600080fd5b506001600160a01b03813516906020013561063f565b34801561034057600080fd5b506101a56004803603604081101561035757600080fd5b506001600160a01b0381351690602001356106a7565b34801561037957600080fd5b5061024d6004803603604081101561039057600080fd5b506001600160a01b0381351690602001356106bb565b61024d6106c9565b3480156103ba57600080fd5b506101ce600480360360408110156103d157600080fd5b506001600160a01b03813581169160200135166106d5565b60038054604080516020601f60026000196101006001881615020190951694909404938401819004810282018101909252828152606093909290918301828280156104755780601f1061044a57610100808354040283529160200191610475565b820191906000526020600020905b81548152906001019060200180831161045857829003601f168201915b5050505050905090565b600061049361048c610700565b8484610704565b50600192915050565b60025490565b60006104af8484846107f0565b61051f846104bb610700565b61051a85604051806060016040528060288152602001610d04602891396001600160a01b038a166000908152600160205260408120906104f9610700565b6001600160a01b03168152602081019190915260400160002054919061094b565b610704565b5060019392505050565b80471061055f57604051339082156108fc029083906000818181858888f1935050505015801561055d573d6000803e3d6000fd5b505b61056933826109e2565b50565b60055460ff1690565b6000610493610582610700565b8461051a8560016000610593610700565b6001600160a01b03908116825260208083019390935260409182016000908120918c168152925290205490610ade565b6001600160a01b031660009081526020819052604090205490565b60048054604080516020601f60026000196101006001881615020190951694909404938401819004810282018101909252828152606093909290918301828280156104755780601f1061044a57610100808354040283529160200191610475565b600061049361064c610700565b8461051a85604051806060016040528060258152602001610d966025913960016000610676610700565b6001600160a01b03908116825260208083019390935260409182016000908120918d1681529252902054919061094b565b60006104936106b4610700565b84846107f0565b6106c58282610b3f565b5050565b6106d33334610b3f565b565b6001600160a01b03918216600090815260016020908152604080832093909416825291909152205490565b3390565b6001600160a01b0383166107495760405162461bcd60e51b8152600401808060200182810382526024815260200180610d726024913960400191505060405180910390fd5b6001600160a01b03821661078e5760405162461bcd60e51b8152600401808060200182810382526022815260200180610cbc6022913960400191505060405180910390fd5b6001600160a01b03808416600081815260016020908152604080832094871680845294825291829020859055815185815291517f8c5be1e5ebec7d5bd14f71427d1e84f3dd0314c0f7b2291e5b200ac8c7c3b9259281900390910190a3505050565b6001600160a01b0383166108355760405162461bcd60e51b8152600401808060200182810382526025815260200180610d4d6025913960400191505060405180910390fd5b6001600160a01b03821661087a5760405162461bcd60e51b8152600401808060200182810382526023815260200180610c776023913960400191505060405180910390fd5b610885838383610c2f565b6108c281604051806060016040528060268152602001610cde602691396001600160a01b038616600090815260208190526040902054919061094b565b6001600160a01b0380851660009081526020819052604080822093909355908416815220546108f19082610ade565b6001600160a01b038084166000818152602081815260409182902094909455805185815290519193928716927fddf252ad1be2c89b69c2b068fc378daa952ba7f163c4a11628f55a4df523b3ef92918290030190a3505050565b600081848411156109da5760405162461bcd60e51b81526004018080602001828103825283818151815260200191508051906020019080838360005b8381101561099f578181015183820152602001610987565b50505050905090810190601f1680156109cc5780820380516001836020036101000a031916815260200191505b509250505060405180910390fd5b505050900390565b6001600160a01b038216610a275760405162461bcd60e51b8152600401808060200182810382526021815260200180610d2c6021913960400191505060405180910390fd5b610a3382600083610c2f565b610a7081604051806060016040528060228152602001610c9a602291396001600160a01b038516600090815260208190526040902054919061094b565b6001600160a01b038316600090815260208190526040902055600254610a969082610c34565b6002556040805182815290516000916001600160a01b038516917fddf252ad1be2c89b69c2b068fc378daa952ba7f163c4a11628f55a4df523b3ef9181900360200190a35050565b600082820183811015610b38576040805162461bcd60e51b815260206004820152601b60248201527f536166654d6174683a206164646974696f6e206f766572666c6f770000000000604482015290519081900360640190fd5b9392505050565b6001600160a01b038216610b9a576040805162461bcd60e51b815260206004820152601f60248201527f45524332303a206d696e7420746f20746865207a65726f206164647265737300604482015290519081900360640190fd5b610ba660008383610c2f565b600254610bb39082610ade565b6002556001600160a01b038216600090815260208190526040902054610bd99082610ade565b6001600160a01b0383166000818152602081815260408083209490945583518581529351929391927fddf252ad1be2c89b69c2b068fc378daa952ba7f163c4a11628f55a4df523b3ef9281900390910190a35050565b505050565b6000610b3883836040518060400160405280601e81526020017f536166654d6174683a207375627472616374696f6e206f766572666c6f77000081525061094b56fe45524332303a207472616e7366657220746f20746865207a65726f206164647265737345524332303a206275726e20616d6f756e7420657863656564732062616c616e636545524332303a20617070726f766520746f20746865207a65726f206164647265737345524332303a207472616e7366657220616d6f756e7420657863656564732062616c616e636545524332303a207472616e7366657220616d6f756e74206578636565647320616c6c6f77616e636545524332303a206275726e2066726f6d20746865207a65726f206164647265737345524332303a207472616e736665722066726f6d20746865207a65726f206164647265737345524332303a20617070726f76652066726f6d20746865207a65726f206164647265737345524332303a2064656372656173656420616c6c6f77616e63652062656c6f77207a65726fa2646970667358221220c39a74156d28e6d1f1bc8413aed5c5b6cd1d54437868970c8ad8a87edd4c680664736f6c634300060c0033",
  "devdoc": {
    "kind": "dev",
    "methods": {
      "allowance(address,address)": {
        "details": "See {IERC20-allowance}."
      },
      "approve(address,uint256)": {
        "details": "See {IERC20-approve}. Requirements: - `spender` cannot be the zero address."
      },
      "balanceOf(address)": {
        "details": "See {IERC20-balanceOf}."
      },
      "decimals()": {
        "details": "Returns the number of decimals used to get its user representation. For example, if `decimals` equals `2`, a balance of `505` tokens should be displayed to a user as `5,05` (`505 / 10 ** 2`). Tokens usually opt for a value of 18, imitating the relationship between Ether and Wei. This is the value {ERC20} uses, unless {_setupDecimals} is called. NOTE: This information is only used for _display_ purposes: it in no way affects any of the arithmetic of the contract, including {IERC20-balanceOf} and {IERC20-transfer}."
      },
      "decreaseAllowance(address,uint256)": {
        "details": "Atomically decreases the allowance granted to `spender` by the caller. This is an alternative to {approve} that can be used as a mitigation for problems described in {IERC20-approve}. Emits an {Approval} event indicating the updated allowance. Requirements: - `spender` cannot be the zero address. - `spender` must have allowance for the caller of at least `subtractedValue`."
      },
      "increaseAllowance(address,uint256)": {
        "details": "Atomically increases the allowance granted to `spender` by the caller. This is an alternative to {approve} that can be used as a mitigation for problems described in {IERC20-approve}. Emits an {Approval} event indicating the updated allowance. Requirements: - `spender` cannot be the zero address."
      },
      "name()": {
        "details": "Returns the name of the token."
      },
      "symbol()": {
        "details": "Returns the symbol of the token, usually a shorter version of the name."
      },
      "totalSupply()": {
        "details": "See {IERC20-totalSupply}."
      },
      "transfer(address,uint256)": {
        "details": "See {IERC20-transfer}. Requirements: - `recipient` cannot be the zero address. - the caller must have a balance of at least `amount`."
      },
      "transferFrom(address,address,uint256)": {
        "details": "See {IERC20-transferFrom}. Emits an {Approval} event indicating the updated allowance. This is not required by the EIP. See the note at the beginning of {ERC20}. Requirements: - `sender` and `recipient` cannot be the zero address. - `sender` must have a balance of at least `amount`. - the caller must have allowance for ``sender``'s tokens of at least `amount`."
      }
    },
    "version": 1
  },
  "userdoc": {
    "kind": "user",
    "methods": {},
    "version": 1
  },
  "storageLayout": {
    "storage": [
      {
        "astId": 235,
        "contract": "temp-contracts/mocks/MockERC20.sol:MockERC20",
        "label": "_balances",
        "offset": 0,
        "slot": "0",
        "type": "t_mapping(t_address,t_uint256)"
      },
      {
        "astId": 241,
        "contract": "temp-contracts/mocks/MockERC20.sol:MockERC20",
        "label": "_allowances",
        "offset": 0,
        "slot": "1",
        "type": "t_mapping(t_address,t_mapping(t_address,t_uint256))"
      },
      {
        "astId": 243,
        "contract": "temp-contracts/mocks/MockERC20.sol:MockERC20",
        "label": "_totalSupply",
        "offset": 0,
        "slot": "2",
        "type": "t_uint256"
      },
      {
        "astId": 245,
        "contract": "temp-contracts/mocks/MockERC20.sol:MockERC20",
        "label": "_name",
        "offset": 0,
        "slot": "3",
        "type": "t_string_storage"
      },
      {
        "astId": 247,
        "contract": "temp-contracts/mocks/MockERC20.sol:MockERC20",
        "label": "_symbol",
        "offset": 0,
        "slot": "4",
        "type": "t_string_storage"
      },
      {
        "astId": 249,
        "contract": "temp-contracts/mocks/MockERC20.sol:MockERC20",
        "label": "_decimals",
        "offset": 0,
        "slot": "5",
        "type": "t_uint8"
      }
    ],
    "types": {
      "t_address": {
        "encoding": "inplace",
        "label": "address",
        "numberOfBytes": "20"
      },
      "t_mapping(t_address,t_mapping(t_address,t_uint256))": {
        "encoding": "mapping",
        "key": "t_address",
        "label": "mapping(address => mapping(address => uint256))",
        "numberOfBytes": "32",
        "value": "t_mapping(t_address,t_uint256)"
      },
      "t_mapping(t_address,t_uint256)": {
        "encoding": "mapping",
        "key": "t_address",
        "label": "mapping(address => uint256)",
        "numberOfBytes": "32",
        "value": "t_uint256"
      },
      "t_string_storage": {
        "encoding": "bytes",
        "label": "string",
        "numberOfBytes": "32"
      },
      "t_uint256": {
        "encoding": "inplace",
        "label": "uint256",
        "numberOfBytes": "32"
      },
      "t_uint8": {
        "encoding": "inplace",
        "label": "uint8",
        "numberOfBytes": "1"
      }
    }
  },
  "gasEstimates": {
    "creation": {
      "codeDepositCost": "713600",
      "executionCost": "infinite",
      "totalCost": "infinite"
    },
    "external": {
      "allowance(address,address)": "1338",
      "approve(address,uint256)": "infinite",
      "balanceOf(address)": "1168",
      "decimals()": "1080",
      "decreaseAllowance(address,uint256)": "infinite",
      "deposit()": "infinite",
      "getFreeTokens(address,uint256)": "infinite",
      "increaseAllowance(address,uint256)": "infinite",
      "name()": "infinite",
      "symbol()": "infinite",
      "totalSupply()": "1066",
      "transfer(address,uint256)": "infinite",
      "transferFrom(address,address,uint256)": "infinite",
      "withdraw(uint256)": "infinite"
    }
  }
}